{
  "_format": "hh-sol-artifact-1",
  "contractName": "CryptoDevs",
  "sourceName": "contracts/CryptoDevs.sol",
  "abi": [
    {
      "inputs": [
        {
          "internalType": "string",
          "name": "baseURI",
          "type": "string"
        },
        {
          "internalType": "address",
          "name": "whitelistContract",
          "type": "address"
        }
      ],
      "stateMutability": "nonpayable",
      "type": "constructor"
    },
    {
      "anonymous": false,
      "inputs": [
        {
          "indexed": true,
          "internalType": "address",
          "name": "owner",
          "type": "address"
        },
        {
          "indexed": true,
          "internalType": "address",
          "name": "approved",
          "type": "address"
        },
        {
          "indexed": true,
          "internalType": "uint256",
          "name": "tokenId",
          "type": "uint256"
        }
      ],
      "name": "Approval",
      "type": "event"
    },
    {
      "anonymous": false,
      "inputs": [
        {
          "indexed": true,
          "internalType": "address",
          "name": "owner",
          "type": "address"
        },
        {
          "indexed": true,
          "internalType": "address",
          "name": "operator",
          "type": "address"
        },
        {
          "indexed": false,
          "internalType": "bool",
          "name": "approved",
          "type": "bool"
        }
      ],
      "name": "ApprovalForAll",
      "type": "event"
    },
    {
      "anonymous": false,
      "inputs": [
        {
          "indexed": true,
          "internalType": "address",
          "name": "previousOwner",
          "type": "address"
        },
        {
          "indexed": true,
          "internalType": "address",
          "name": "newOwner",
          "type": "address"
        }
      ],
      "name": "OwnershipTransferred",
      "type": "event"
    },
    {
      "anonymous": false,
      "inputs": [
        {
          "indexed": true,
          "internalType": "address",
          "name": "from",
          "type": "address"
        },
        {
          "indexed": true,
          "internalType": "address",
          "name": "to",
          "type": "address"
        },
        {
          "indexed": true,
          "internalType": "uint256",
          "name": "tokenId",
          "type": "uint256"
        }
      ],
      "name": "Transfer",
      "type": "event"
    },
    {
      "stateMutability": "payable",
      "type": "fallback"
    },
    {
      "inputs": [],
      "name": "_paused",
      "outputs": [
        {
          "internalType": "bool",
          "name": "",
          "type": "bool"
        }
      ],
      "stateMutability": "view",
      "type": "function"
    },
    {
      "inputs": [],
      "name": "_price",
      "outputs": [
        {
          "internalType": "uint256",
          "name": "",
          "type": "uint256"
        }
      ],
      "stateMutability": "view",
      "type": "function"
    },
    {
      "inputs": [
        {
          "internalType": "address",
          "name": "to",
          "type": "address"
        },
        {
          "internalType": "uint256",
          "name": "tokenId",
          "type": "uint256"
        }
      ],
      "name": "approve",
      "outputs": [],
      "stateMutability": "nonpayable",
      "type": "function"
    },
    {
      "inputs": [
        {
          "internalType": "address",
          "name": "owner",
          "type": "address"
        }
      ],
      "name": "balanceOf",
      "outputs": [
        {
          "internalType": "uint256",
          "name": "",
          "type": "uint256"
        }
      ],
      "stateMutability": "view",
      "type": "function"
    },
    {
      "inputs": [
        {
          "internalType": "uint256",
          "name": "tokenId",
          "type": "uint256"
        }
      ],
      "name": "getApproved",
      "outputs": [
        {
          "internalType": "address",
          "name": "",
          "type": "address"
        }
      ],
      "stateMutability": "view",
      "type": "function"
    },
    {
      "inputs": [
        {
          "internalType": "address",
          "name": "owner",
          "type": "address"
        },
        {
          "internalType": "address",
          "name": "operator",
          "type": "address"
        }
      ],
      "name": "isApprovedForAll",
      "outputs": [
        {
          "internalType": "bool",
          "name": "",
          "type": "bool"
        }
      ],
      "stateMutability": "view",
      "type": "function"
    },
    {
      "inputs": [],
      "name": "maxTokenIds",
      "outputs": [
        {
          "internalType": "uint256",
          "name": "",
          "type": "uint256"
        }
      ],
      "stateMutability": "view",
      "type": "function"
    },
    {
      "inputs": [],
      "name": "mint",
      "outputs": [],
      "stateMutability": "payable",
      "type": "function"
    },
    {
      "inputs": [],
      "name": "name",
      "outputs": [
        {
          "internalType": "string",
          "name": "",
          "type": "string"
        }
      ],
      "stateMutability": "view",
      "type": "function"
    },
    {
      "inputs": [],
      "name": "owner",
      "outputs": [
        {
          "internalType": "address",
          "name": "",
          "type": "address"
        }
      ],
      "stateMutability": "view",
      "type": "function"
    },
    {
      "inputs": [
        {
          "internalType": "uint256",
          "name": "tokenId",
          "type": "uint256"
        }
      ],
      "name": "ownerOf",
      "outputs": [
        {
          "internalType": "address",
          "name": "",
          "type": "address"
        }
      ],
      "stateMutability": "view",
      "type": "function"
    },
    {
      "inputs": [],
      "name": "presaleEnded",
      "outputs": [
        {
          "internalType": "uint256",
          "name": "",
          "type": "uint256"
        }
      ],
      "stateMutability": "view",
      "type": "function"
    },
    {
      "inputs": [],
      "name": "presaleMint",
      "outputs": [],
      "stateMutability": "payable",
      "type": "function"
    },
    {
      "inputs": [],
      "name": "presaleStarted",
      "outputs": [
        {
          "internalType": "bool",
          "name": "",
          "type": "bool"
        }
      ],
      "stateMutability": "view",
      "type": "function"
    },
    {
      "inputs": [],
      "name": "renounceOwnership",
      "outputs": [],
      "stateMutability": "nonpayable",
      "type": "function"
    },
    {
      "inputs": [
        {
          "internalType": "address",
          "name": "from",
          "type": "address"
        },
        {
          "internalType": "address",
          "name": "to",
          "type": "address"
        },
        {
          "internalType": "uint256",
          "name": "tokenId",
          "type": "uint256"
        }
      ],
      "name": "safeTransferFrom",
      "outputs": [],
      "stateMutability": "nonpayable",
      "type": "function"
    },
    {
      "inputs": [
        {
          "internalType": "address",
          "name": "from",
          "type": "address"
        },
        {
          "internalType": "address",
          "name": "to",
          "type": "address"
        },
        {
          "internalType": "uint256",
          "name": "tokenId",
          "type": "uint256"
        },
        {
          "internalType": "bytes",
          "name": "_data",
          "type": "bytes"
        }
      ],
      "name": "safeTransferFrom",
      "outputs": [],
      "stateMutability": "nonpayable",
      "type": "function"
    },
    {
      "inputs": [
        {
          "internalType": "address",
          "name": "operator",
          "type": "address"
        },
        {
          "internalType": "bool",
          "name": "approved",
          "type": "bool"
        }
      ],
      "name": "setApprovalForAll",
      "outputs": [],
      "stateMutability": "nonpayable",
      "type": "function"
    },
    {
      "inputs": [
        {
          "internalType": "bool",
          "name": "val",
          "type": "bool"
        }
      ],
      "name": "setPaused",
      "outputs": [],
      "stateMutability": "nonpayable",
      "type": "function"
    },
    {
      "inputs": [],
      "name": "startPresale",
      "outputs": [],
      "stateMutability": "nonpayable",
      "type": "function"
    },
    {
      "inputs": [
        {
          "internalType": "bytes4",
          "name": "interfaceId",
          "type": "bytes4"
        }
      ],
      "name": "supportsInterface",
      "outputs": [
        {
          "internalType": "bool",
          "name": "",
          "type": "bool"
        }
      ],
      "stateMutability": "view",
      "type": "function"
    },
    {
      "inputs": [],
      "name": "symbol",
      "outputs": [
        {
          "internalType": "string",
          "name": "",
          "type": "string"
        }
      ],
      "stateMutability": "view",
      "type": "function"
    },
    {
      "inputs": [
        {
          "internalType": "uint256",
          "name": "index",
          "type": "uint256"
        }
      ],
      "name": "tokenByIndex",
      "outputs": [
        {
          "internalType": "uint256",
          "name": "",
          "type": "uint256"
        }
      ],
      "stateMutability": "view",
      "type": "function"
    },
    {
      "inputs": [],
      "name": "tokenIds",
      "outputs": [
        {
          "internalType": "uint256",
          "name": "",
          "type": "uint256"
        }
      ],
      "stateMutability": "view",
      "type": "function"
    },
    {
      "inputs": [
        {
          "internalType": "address",
          "name": "owner",
          "type": "address"
        },
        {
          "internalType": "uint256",
          "name": "index",
          "type": "uint256"
        }
      ],
      "name": "tokenOfOwnerByIndex",
      "outputs": [
        {
          "internalType": "uint256",
          "name": "",
          "type": "uint256"
        }
      ],
      "stateMutability": "view",
      "type": "function"
    },
    {
      "inputs": [
        {
          "internalType": "uint256",
          "name": "tokenId",
          "type": "uint256"
        }
      ],
      "name": "tokenURI",
      "outputs": [
        {
          "internalType": "string",
          "name": "",
          "type": "string"
        }
      ],
      "stateMutability": "view",
      "type": "function"
    },
    {
      "inputs": [],
      "name": "totalSupply",
      "outputs": [
        {
          "internalType": "uint256",
          "name": "",
          "type": "uint256"
        }
      ],
      "stateMutability": "view",
      "type": "function"
    },
    {
      "inputs": [
        {
          "internalType": "address",
          "name": "from",
          "type": "address"
        },
        {
          "internalType": "address",
          "name": "to",
          "type": "address"
        },
        {
          "internalType": "uint256",
          "name": "tokenId",
          "type": "uint256"
        }
      ],
      "name": "transferFrom",
      "outputs": [],
      "stateMutability": "nonpayable",
      "type": "function"
    },
    {
      "inputs": [
        {
          "internalType": "address",
          "name": "newOwner",
          "type": "address"
        }
      ],
      "name": "transferOwnership",
      "outputs": [],
      "stateMutability": "nonpayable",
      "type": "function"
    },
    {
      "inputs": [],
      "name": "withdraw",
      "outputs": [],
      "stateMutability": "nonpayable",
      "type": "function"
    },
    {
      "stateMutability": "payable",
      "type": "receive"
    }
  ],
  "bytecode": "0x6080604052662386f26fc10000600c556014600e553480156200002157600080fd5b50604051620046aa380380620046aa833981810160405281019062000047919062000370565b6040518060400160405280600b81526020017f43727970746f20446576730000000000000000000000000000000000000000008152506040518060400160405280600281526020017f43440000000000000000000000000000000000000000000000000000000000008152508160009080519060200190620000cb92919062000237565b508060019080519060200190620000e492919062000237565b50505062000107620000fb6200016960201b60201c565b6200017160201b60201c565b81600b90805190602001906200011f92919062000237565b5080601060006101000a81548173ffffffffffffffffffffffffffffffffffffffff021916908373ffffffffffffffffffffffffffffffffffffffff160217905550505062000588565b600033905090565b6000600a60009054906101000a900473ffffffffffffffffffffffffffffffffffffffff16905081600a60006101000a81548173ffffffffffffffffffffffffffffffffffffffff021916908373ffffffffffffffffffffffffffffffffffffffff1602179055508173ffffffffffffffffffffffffffffffffffffffff168173ffffffffffffffffffffffffffffffffffffffff167f8be0079c531659141344cd1fd0a4f28419497f9722a3daafe3b4186f6b6457e060405160405180910390a35050565b828054620002459062000493565b90600052602060002090601f016020900481019282620002695760008555620002b5565b82601f106200028457805160ff1916838001178555620002b5565b82800160010185558215620002b5579182015b82811115620002b457825182559160200191906001019062000297565b5b509050620002c49190620002c8565b5090565b5b80821115620002e3576000816000905550600101620002c9565b5090565b6000620002fe620002f884620003f3565b620003ca565b9050828152602081018484840111156200031757600080fd5b620003248482856200045d565b509392505050565b6000815190506200033d816200056e565b92915050565b600082601f8301126200035557600080fd5b815162000367848260208601620002e7565b91505092915050565b600080604083850312156200038457600080fd5b600083015167ffffffffffffffff8111156200039f57600080fd5b620003ad8582860162000343565b9250506020620003c0858286016200032c565b9150509250929050565b6000620003d6620003e9565b9050620003e48282620004c9565b919050565b6000604051905090565b600067ffffffffffffffff8211156200041157620004106200052e565b5b6200041c826200055d565b9050602081019050919050565b600062000436826200043d565b9050919050565b600073ffffffffffffffffffffffffffffffffffffffff82169050919050565b60005b838110156200047d57808201518184015260208101905062000460565b838111156200048d576000848401525b50505050565b60006002820490506001821680620004ac57607f821691505b60208210811415620004c357620004c2620004ff565b5b50919050565b620004d4826200055d565b810181811067ffffffffffffffff82111715620004f657620004f56200052e565b5b80604052505050565b7f4e487b7100000000000000000000000000000000000000000000000000000000600052602260045260246000fd5b7f4e487b7100000000000000000000000000000000000000000000000000000000600052604160045260246000fd5b6000601f19601f8301169050919050565b620005798162000429565b81146200058557600080fd5b50565b61411280620005986000396000f3fe6080604052600436106101d15760003560e01c80634f6ccce7116100f75780638da5cb5b11610095578063c87b56dd11610064578063c87b56dd1461061a578063e580b2b014610657578063e985e9c514610682578063f2fde38b146106bf576101d8565b80638da5cb5b1461057257806395d89b411461059d578063a22cb465146105c8578063b88d4fde146105f1576101d8565b80636352211e116100d15780636352211e146104b657806370a08231146104f3578063714cff5614610530578063715018a61461055b576101d8565b80634f6ccce71461044457806359533d6c146104815780635f7696211461048b576101d8565b806316c38b3c1161016f57806323b872dd1161013e57806323b872dd1461039e5780632f745c59146103c75780633ccfd60b1461040457806342842e0e1461041b576101d8565b806316c38b3c146102f457806316c61ccc1461031d57806318160ddd14610348578063235b6ea114610373576101d8565b806306fdde03116101ab57806306fdde0314610259578063081812fc14610284578063095ea7b3146102c15780631249c58b146102ea576101d8565b806301ffc9a7146101da57806304549d6f1461021757806304c98b2b14610242576101d8565b366101d857005b005b3480156101e657600080fd5b5061020160048036038101906101fc9190612d00565b6106e8565b60405161020e919061329c565b60405180910390f35b34801561022357600080fd5b5061022c610762565b604051610239919061329c565b60405180910390f35b34801561024e57600080fd5b50610257610775565b005b34801561026557600080fd5b5061026e610822565b60405161027b91906132b7565b60405180910390f35b34801561029057600080fd5b506102ab60048036038101906102a69190612d52565b6108b4565b6040516102b89190613235565b60405180910390f35b3480156102cd57600080fd5b506102e860048036038101906102e39190612c72565b610939565b005b6102f2610a51565b005b34801561030057600080fd5b5061031b60048036038101906103169190612cae565b610bb1565b005b34801561032957600080fd5b50610332610c4a565b60405161033f919061329c565b60405180910390f35b34801561035457600080fd5b5061035d610c5d565b60405161036a9190613619565b60405180910390f35b34801561037f57600080fd5b50610388610c6a565b6040516103959190613619565b60405180910390f35b3480156103aa57600080fd5b506103c560048036038101906103c09190612b6c565b610c70565b005b3480156103d357600080fd5b506103ee60048036038101906103e99190612c72565b610cd0565b6040516103fb9190613619565b60405180910390f35b34801561041057600080fd5b50610419610d75565b005b34801561042757600080fd5b50610442600480360381019061043d9190612b6c565b610eb3565b005b34801561045057600080fd5b5061046b60048036038101906104669190612d52565b610ed3565b6040516104789190613619565b60405180910390f35b610489610f6a565b005b34801561049757600080fd5b506104a06111b3565b6040516104ad9190613619565b60405180910390f35b3480156104c257600080fd5b506104dd60048036038101906104d89190612d52565b6111b9565b6040516104ea9190613235565b60405180910390f35b3480156104ff57600080fd5b5061051a60048036038101906105159190612b07565b61126b565b6040516105279190613619565b60405180910390f35b34801561053c57600080fd5b50610545611323565b6040516105529190613619565b60405180910390f35b34801561056757600080fd5b50610570611329565b005b34801561057e57600080fd5b506105876113b1565b6040516105949190613235565b60405180910390f35b3480156105a957600080fd5b506105b26113db565b6040516105bf91906132b7565b60405180910390f35b3480156105d457600080fd5b506105ef60048036038101906105ea9190612c36565b61146d565b005b3480156105fd57600080fd5b5061061860048036038101906106139190612bbb565b611483565b005b34801561062657600080fd5b50610641600480360381019061063c9190612d52565b6114e5565b60405161064e91906132b7565b60405180910390f35b34801561066357600080fd5b5061066c61158c565b6040516106799190613619565b60405180910390f35b34801561068e57600080fd5b506106a960048036038101906106a49190612b30565b611592565b6040516106b6919061329c565b60405180910390f35b3480156106cb57600080fd5b506106e660048036038101906106e19190612b07565b611626565b005b60007f780e9d63000000000000000000000000000000000000000000000000000000007bffffffffffffffffffffffffffffffffffffffffffffffffffffffff1916827bffffffffffffffffffffffffffffffffffffffffffffffffffffffff1916148061075b575061075a8261171e565b5b9050919050565b601060149054906101000a900460ff1681565b61077d611800565b73ffffffffffffffffffffffffffffffffffffffff1661079b6113b1565b73ffffffffffffffffffffffffffffffffffffffff16146107f1576040517f08c379a00000000000000000000000000000000000000000000000000000000081526004016107e8906134d9565b60405180910390fd5b6001601060146101000a81548160ff02191690831515021790555061012c4261081a91906136d8565b601181905550565b60606000805461083190613849565b80601f016020809104026020016040519081016040528092919081815260200182805461085d90613849565b80156108aa5780601f1061087f576101008083540402835291602001916108aa565b820191906000526020600020905b81548152906001019060200180831161088d57829003601f168201915b5050505050905090565b60006108bf82611808565b6108fe576040517f08c379a00000000000000000000000000000000000000000000000000000000081526004016108f5906134b9565b60405180910390fd5b6004600083815260200190815260200160002060009054906101000a900473ffffffffffffffffffffffffffffffffffffffff169050919050565b6000610944826111b9565b90508073ffffffffffffffffffffffffffffffffffffffff168373ffffffffffffffffffffffffffffffffffffffff1614156109b5576040517f08c379a00000000000000000000000000000000000000000000000000000000081526004016109ac90613559565b60405180910390fd5b8073ffffffffffffffffffffffffffffffffffffffff166109d4611800565b73ffffffffffffffffffffffffffffffffffffffff161480610a035750610a02816109fd611800565b611592565b5b610a42576040517f08c379a0000000000000000000000000000000000000000000000000000000008152600401610a3990613419565b60405180910390fd5b610a4c8383611874565b505050565b600d60009054906101000a900460ff1615610aa1576040517f08c379a0000000000000000000000000000000000000000000000000000000008152600401610a9890613539565b60405180910390fd5b601060149054906101000a900460ff168015610abf57506011544210155b610afe576040517f08c379a0000000000000000000000000000000000000000000000000000000008152600401610af5906135f9565b60405180910390fd5b600e54600f5410610b44576040517f08c379a0000000000000000000000000000000000000000000000000000000008152600401610b3b90613339565b60405180910390fd5b600c54341015610b89576040517f08c379a0000000000000000000000000000000000000000000000000000000008152600401610b8090613579565b60405180910390fd5b6001600f6000828254610b9c91906136d8565b92505081905550610baf33600f5461192d565b565b610bb9611800565b73ffffffffffffffffffffffffffffffffffffffff16610bd76113b1565b73ffffffffffffffffffffffffffffffffffffffff1614610c2d576040517f08c379a0000000000000000000000000000000000000000000000000000000008152600401610c24906134d9565b60405180910390fd5b80600d60006101000a81548160ff02191690831515021790555050565b600d60009054906101000a900460ff1681565b6000600880549050905090565b600c5481565b610c81610c7b611800565b8261194b565b610cc0576040517f08c379a0000000000000000000000000000000000000000000000000000000008152600401610cb790613599565b60405180910390fd5b610ccb838383611a29565b505050565b6000610cdb8361126b565b8210610d1c576040517f08c379a0000000000000000000000000000000000000000000000000000000008152600401610d13906132d9565b60405180910390fd5b600660008473ffffffffffffffffffffffffffffffffffffffff1673ffffffffffffffffffffffffffffffffffffffff168152602001908152602001600020600083815260200190815260200160002054905092915050565b610d7d611800565b73ffffffffffffffffffffffffffffffffffffffff16610d9b6113b1565b73ffffffffffffffffffffffffffffffffffffffff1614610df1576040517f08c379a0000000000000000000000000000000000000000000000000000000008152600401610de8906134d9565b60405180910390fd5b6000610dfb6113b1565b9050600047905060008273ffffffffffffffffffffffffffffffffffffffff1682604051610e2890613220565b60006040518083038185875af1925050503d8060008114610e65576040519150601f19603f3d011682016040523d82523d6000602084013e610e6a565b606091505b5050905080610eae576040517f08c379a0000000000000000000000000000000000000000000000000000000008152600401610ea590613399565b60405180910390fd5b505050565b610ece83838360405180602001604052806000815250611483565b505050565b6000610edd610c5d565b8210610f1e576040517f08c379a0000000000000000000000000000000000000000000000000000000008152600401610f15906135b9565b60405180910390fd5b60088281548110610f58577f4e487b7100000000000000000000000000000000000000000000000000000000600052603260045260246000fd5b90600052602060002001549050919050565b600d60009054906101000a900460ff1615610fba576040517f08c379a0000000000000000000000000000000000000000000000000000000008152600401610fb190613539565b60405180910390fd5b601060149054906101000a900460ff168015610fd7575060115442105b611016576040517f08c379a000000000000000000000000000000000000000000000000000000000815260040161100d90613379565b60405180910390fd5b601060009054906101000a900473ffffffffffffffffffffffffffffffffffffffff1673ffffffffffffffffffffffffffffffffffffffff166306c933d8336040518263ffffffff1660e01b81526004016110719190613235565b60206040518083038186803b15801561108957600080fd5b505afa15801561109d573d6000803e3d6000fd5b505050506040513d601f19601f820116820180604052508101906110c19190612cd7565b611100576040517f08c379a00000000000000000000000000000000000000000000000000000000081526004016110f790613499565b60405180910390fd5b600e54600f5410611146576040517f08c379a000000000000000000000000000000000000000000000000000000000815260040161113d906135d9565b60405180910390fd5b600c5434101561118b576040517f08c379a000000000000000000000000000000000000000000000000000000000815260040161118290613579565b60405180910390fd5b6001600f600082825461119e91906136d8565b925050819055506111b133600f5461192d565b565b600e5481565b6000806002600084815260200190815260200160002060009054906101000a900473ffffffffffffffffffffffffffffffffffffffff169050600073ffffffffffffffffffffffffffffffffffffffff168173ffffffffffffffffffffffffffffffffffffffff161415611262576040517f08c379a000000000000000000000000000000000000000000000000000000000815260040161125990613459565b60405180910390fd5b80915050919050565b60008073ffffffffffffffffffffffffffffffffffffffff168273ffffffffffffffffffffffffffffffffffffffff1614156112dc576040517f08c379a00000000000000000000000000000000000000000000000000000000081526004016112d390613439565b60405180910390fd5b600360008373ffffffffffffffffffffffffffffffffffffffff1673ffffffffffffffffffffffffffffffffffffffff168152602001908152602001600020549050919050565b600f5481565b611331611800565b73ffffffffffffffffffffffffffffffffffffffff1661134f6113b1565b73ffffffffffffffffffffffffffffffffffffffff16146113a5576040517f08c379a000000000000000000000000000000000000000000000000000000000815260040161139c906134d9565b60405180910390fd5b6113af6000611c85565b565b6000600a60009054906101000a900473ffffffffffffffffffffffffffffffffffffffff16905090565b6060600180546113ea90613849565b80601f016020809104026020016040519081016040528092919081815260200182805461141690613849565b80156114635780601f1061143857610100808354040283529160200191611463565b820191906000526020600020905b81548152906001019060200180831161144657829003601f168201915b5050505050905090565b61147f611478611800565b8383611d4b565b5050565b61149461148e611800565b8361194b565b6114d3576040517f08c379a00000000000000000000000000000000000000000000000000000000081526004016114ca90613599565b60405180910390fd5b6114df84848484611eb8565b50505050565b60606114f082611808565b61152f576040517f08c379a000000000000000000000000000000000000000000000000000000000815260040161152690613519565b60405180910390fd5b6000611539611f14565b905060008151116115595760405180602001604052806000815250611584565b8061156384611fa6565b6040516020016115749291906131fc565b6040516020818303038152906040525b915050919050565b60115481565b6000600560008473ffffffffffffffffffffffffffffffffffffffff1673ffffffffffffffffffffffffffffffffffffffff16815260200190815260200160002060008373ffffffffffffffffffffffffffffffffffffffff1673ffffffffffffffffffffffffffffffffffffffff16815260200190815260200160002060009054906101000a900460ff16905092915050565b61162e611800565b73ffffffffffffffffffffffffffffffffffffffff1661164c6113b1565b73ffffffffffffffffffffffffffffffffffffffff16146116a2576040517f08c379a0000000000000000000000000000000000000000000000000000000008152600401611699906134d9565b60405180910390fd5b600073ffffffffffffffffffffffffffffffffffffffff168173ffffffffffffffffffffffffffffffffffffffff161415611712576040517f08c379a000000000000000000000000000000000000000000000000000000000815260040161170990613319565b60405180910390fd5b61171b81611c85565b50565b60007f80ac58cd000000000000000000000000000000000000000000000000000000007bffffffffffffffffffffffffffffffffffffffffffffffffffffffff1916827bffffffffffffffffffffffffffffffffffffffffffffffffffffffff191614806117e957507f5b5e139f000000000000000000000000000000000000000000000000000000007bffffffffffffffffffffffffffffffffffffffffffffffffffffffff1916827bffffffffffffffffffffffffffffffffffffffffffffffffffffffff1916145b806117f957506117f882612153565b5b9050919050565b600033905090565b60008073ffffffffffffffffffffffffffffffffffffffff166002600084815260200190815260200160002060009054906101000a900473ffffffffffffffffffffffffffffffffffffffff1673ffffffffffffffffffffffffffffffffffffffff1614159050919050565b816004600083815260200190815260200160002060006101000a81548173ffffffffffffffffffffffffffffffffffffffff021916908373ffffffffffffffffffffffffffffffffffffffff160217905550808273ffffffffffffffffffffffffffffffffffffffff166118e7836111b9565b73ffffffffffffffffffffffffffffffffffffffff167f8c5be1e5ebec7d5bd14f71427d1e84f3dd0314c0f7b2291e5b200ac8c7c3b92560405160405180910390a45050565b6119478282604051806020016040528060008152506121bd565b5050565b600061195682611808565b611995576040517f08c379a000000000000000000000000000000000000000000000000000000000815260040161198c906133f9565b60405180910390fd5b60006119a0836111b9565b90508073ffffffffffffffffffffffffffffffffffffffff168473ffffffffffffffffffffffffffffffffffffffff161480611a0f57508373ffffffffffffffffffffffffffffffffffffffff166119f7846108b4565b73ffffffffffffffffffffffffffffffffffffffff16145b80611a205750611a1f8185611592565b5b91505092915050565b8273ffffffffffffffffffffffffffffffffffffffff16611a49826111b9565b73ffffffffffffffffffffffffffffffffffffffff1614611a9f576040517f08c379a0000000000000000000000000000000000000000000000000000000008152600401611a96906134f9565b60405180910390fd5b600073ffffffffffffffffffffffffffffffffffffffff168273ffffffffffffffffffffffffffffffffffffffff161415611b0f576040517f08c379a0000000000000000000000000000000000000000000000000000000008152600401611b06906133b9565b60405180910390fd5b611b1a838383612218565b611b25600082611874565b6001600360008573ffffffffffffffffffffffffffffffffffffffff1673ffffffffffffffffffffffffffffffffffffffff1681526020019081526020016000206000828254611b75919061375f565b925050819055506001600360008473ffffffffffffffffffffffffffffffffffffffff1673ffffffffffffffffffffffffffffffffffffffff1681526020019081526020016000206000828254611bcc91906136d8565b92505081905550816002600083815260200190815260200160002060006101000a81548173ffffffffffffffffffffffffffffffffffffffff021916908373ffffffffffffffffffffffffffffffffffffffff160217905550808273ffffffffffffffffffffffffffffffffffffffff168473ffffffffffffffffffffffffffffffffffffffff167fddf252ad1be2c89b69c2b068fc378daa952ba7f163c4a11628f55a4df523b3ef60405160405180910390a4505050565b6000600a60009054906101000a900473ffffffffffffffffffffffffffffffffffffffff16905081600a60006101000a81548173ffffffffffffffffffffffffffffffffffffffff021916908373ffffffffffffffffffffffffffffffffffffffff1602179055508173ffffffffffffffffffffffffffffffffffffffff168173ffffffffffffffffffffffffffffffffffffffff167f8be0079c531659141344cd1fd0a4f28419497f9722a3daafe3b4186f6b6457e060405160405180910390a35050565b8173ffffffffffffffffffffffffffffffffffffffff168373ffffffffffffffffffffffffffffffffffffffff161415611dba576040517f08c379a0000000000000000000000000000000000000000000000000000000008152600401611db1906133d9565b60405180910390fd5b80600560008573ffffffffffffffffffffffffffffffffffffffff1673ffffffffffffffffffffffffffffffffffffffff16815260200190815260200160002060008473ffffffffffffffffffffffffffffffffffffffff1673ffffffffffffffffffffffffffffffffffffffff16815260200190815260200160002060006101000a81548160ff0219169083151502179055508173ffffffffffffffffffffffffffffffffffffffff168373ffffffffffffffffffffffffffffffffffffffff167f17307eab39ab6107e8899845ad3d59bd9653f200f220920489ca2b5937696c3183604051611eab919061329c565b60405180910390a3505050565b611ec3848484611a29565b611ecf8484848461232c565b611f0e576040517f08c379a0000000000000000000000000000000000000000000000000000000008152600401611f05906132f9565b60405180910390fd5b50505050565b6060600b8054611f2390613849565b80601f0160208091040260200160405190810160405280929190818152602001828054611f4f90613849565b8015611f9c5780601f10611f7157610100808354040283529160200191611f9c565b820191906000526020600020905b815481529060010190602001808311611f7f57829003601f168201915b5050505050905090565b60606000821415611fee576040518060400160405280600181526020017f3000000000000000000000000000000000000000000000000000000000000000815250905061214e565b600082905060005b60008214612020578080612009906138ac565b915050600a82612019919061372e565b9150611ff6565b60008167ffffffffffffffff811115612062577f4e487b7100000000000000000000000000000000000000000000000000000000600052604160045260246000fd5b6040519080825280601f01601f1916602001820160405280156120945781602001600182028036833780820191505090505b5090505b60008514612147576001826120ad919061375f565b9150600a856120bc91906138f5565b60306120c891906136d8565b60f81b818381518110612104577f4e487b7100000000000000000000000000000000000000000000000000000000600052603260045260246000fd5b60200101907effffffffffffffffffffffffffffffffffffffffffffffffffffffffffffff1916908160001a905350600a85612140919061372e565b9450612098565b8093505050505b919050565b60007f01ffc9a7000000000000000000000000000000000000000000000000000000007bffffffffffffffffffffffffffffffffffffffffffffffffffffffff1916827bffffffffffffffffffffffffffffffffffffffffffffffffffffffff1916149050919050565b6121c783836124c3565b6121d4600084848461232c565b612213576040517f08c379a000000000000000000000000000000000000000000000000000000000815260040161220a906132f9565b60405180910390fd5b505050565b612223838383612691565b600073ffffffffffffffffffffffffffffffffffffffff168373ffffffffffffffffffffffffffffffffffffffff1614156122665761226181612696565b6122a5565b8173ffffffffffffffffffffffffffffffffffffffff168373ffffffffffffffffffffffffffffffffffffffff16146122a4576122a383826126df565b5b5b600073ffffffffffffffffffffffffffffffffffffffff168273ffffffffffffffffffffffffffffffffffffffff1614156122e8576122e38161284c565b612327565b8273ffffffffffffffffffffffffffffffffffffffff168273ffffffffffffffffffffffffffffffffffffffff161461232657612325828261298f565b5b5b505050565b600061234d8473ffffffffffffffffffffffffffffffffffffffff16612a0e565b156124b6578373ffffffffffffffffffffffffffffffffffffffff1663150b7a02612376611800565b8786866040518563ffffffff1660e01b81526004016123989493929190613250565b602060405180830381600087803b1580156123b257600080fd5b505af19250505080156123e357506040513d601f19601f820116820180604052508101906123e09190612d29565b60015b612466573d8060008114612413576040519150601f19603f3d011682016040523d82523d6000602084013e612418565b606091505b5060008151141561245e576040517f08c379a0000000000000000000000000000000000000000000000000000000008152600401612455906132f9565b60405180910390fd5b805181602001fd5b63150b7a0260e01b7bffffffffffffffffffffffffffffffffffffffffffffffffffffffff1916817bffffffffffffffffffffffffffffffffffffffffffffffffffffffff1916149150506124bb565b600190505b949350505050565b600073ffffffffffffffffffffffffffffffffffffffff168273ffffffffffffffffffffffffffffffffffffffff161415612533576040517f08c379a000000000000000000000000000000000000000000000000000000000815260040161252a90613479565b60405180910390fd5b61253c81611808565b1561257c576040517f08c379a000000000000000000000000000000000000000000000000000000000815260040161257390613359565b60405180910390fd5b61258860008383612218565b6001600360008473ffffffffffffffffffffffffffffffffffffffff1673ffffffffffffffffffffffffffffffffffffffff16815260200190815260200160002060008282546125d891906136d8565b92505081905550816002600083815260200190815260200160002060006101000a81548173ffffffffffffffffffffffffffffffffffffffff021916908373ffffffffffffffffffffffffffffffffffffffff160217905550808273ffffffffffffffffffffffffffffffffffffffff16600073ffffffffffffffffffffffffffffffffffffffff167fddf252ad1be2c89b69c2b068fc378daa952ba7f163c4a11628f55a4df523b3ef60405160405180910390a45050565b505050565b6008805490506009600083815260200190815260200160002081905550600881908060018154018082558091505060019003906000526020600020016000909190919091505550565b600060016126ec8461126b565b6126f6919061375f565b90506000600760008481526020019081526020016000205490508181146127db576000600660008673ffffffffffffffffffffffffffffffffffffffff1673ffffffffffffffffffffffffffffffffffffffff168152602001908152602001600020600084815260200190815260200160002054905080600660008773ffffffffffffffffffffffffffffffffffffffff1673ffffffffffffffffffffffffffffffffffffffff168152602001908152602001600020600084815260200190815260200160002081905550816007600083815260200190815260200160002081905550505b6007600084815260200190815260200160002060009055600660008573ffffffffffffffffffffffffffffffffffffffff1673ffffffffffffffffffffffffffffffffffffffff16815260200190815260200160002060008381526020019081526020016000206000905550505050565b60006001600880549050612860919061375f565b90506000600960008481526020019081526020016000205490506000600883815481106128b6577f4e487b7100000000000000000000000000000000000000000000000000000000600052603260045260246000fd5b9060005260206000200154905080600883815481106128fe577f4e487b7100000000000000000000000000000000000000000000000000000000600052603260045260246000fd5b906000526020600020018190555081600960008381526020019081526020016000208190555060096000858152602001908152602001600020600090556008805480612973577f4e487b7100000000000000000000000000000000000000000000000000000000600052603160045260246000fd5b6001900381819060005260206000200160009055905550505050565b600061299a8361126b565b905081600660008573ffffffffffffffffffffffffffffffffffffffff1673ffffffffffffffffffffffffffffffffffffffff168152602001908152602001600020600083815260200190815260200160002081905550806007600084815260200190815260200160002081905550505050565b600080823b905060008111915050919050565b6000612a34612a2f84613659565b613634565b905082815260208101848484011115612a4c57600080fd5b612a57848285613807565b509392505050565b600081359050612a6e81614080565b92915050565b600081359050612a8381614097565b92915050565b600081519050612a9881614097565b92915050565b600081359050612aad816140ae565b92915050565b600081519050612ac2816140ae565b92915050565b600082601f830112612ad957600080fd5b8135612ae9848260208601612a21565b91505092915050565b600081359050612b01816140c5565b92915050565b600060208284031215612b1957600080fd5b6000612b2784828501612a5f565b91505092915050565b60008060408385031215612b4357600080fd5b6000612b5185828601612a5f565b9250506020612b6285828601612a5f565b9150509250929050565b600080600060608486031215612b8157600080fd5b6000612b8f86828701612a5f565b9350506020612ba086828701612a5f565b9250506040612bb186828701612af2565b9150509250925092565b60008060008060808587031215612bd157600080fd5b6000612bdf87828801612a5f565b9450506020612bf087828801612a5f565b9350506040612c0187828801612af2565b925050606085013567ffffffffffffffff811115612c1e57600080fd5b612c2a87828801612ac8565b91505092959194509250565b60008060408385031215612c4957600080fd5b6000612c5785828601612a5f565b9250506020612c6885828601612a74565b9150509250929050565b60008060408385031215612c8557600080fd5b6000612c9385828601612a5f565b9250506020612ca485828601612af2565b9150509250929050565b600060208284031215612cc057600080fd5b6000612cce84828501612a74565b91505092915050565b600060208284031215612ce957600080fd5b6000612cf784828501612a89565b91505092915050565b600060208284031215612d1257600080fd5b6000612d2084828501612a9e565b91505092915050565b600060208284031215612d3b57600080fd5b6000612d4984828501612ab3565b91505092915050565b600060208284031215612d6457600080fd5b6000612d7284828501612af2565b91505092915050565b612d8481613793565b82525050565b612d93816137a5565b82525050565b6000612da48261368a565b612dae81856136a0565b9350612dbe818560208601613816565b612dc7816139e2565b840191505092915050565b6000612ddd82613695565b612de781856136bc565b9350612df7818560208601613816565b612e00816139e2565b840191505092915050565b6000612e1682613695565b612e2081856136cd565b9350612e30818560208601613816565b80840191505092915050565b6000612e49602b836136bc565b9150612e54826139f3565b604082019050919050565b6000612e6c6032836136bc565b9150612e7782613a42565b604082019050919050565b6000612e8f6026836136bc565b9150612e9a82613a91565b604082019050919050565b6000612eb26021836136bc565b9150612ebd82613ae0565b604082019050919050565b6000612ed5601c836136bc565b9150612ee082613b2f565b602082019050919050565b6000612ef86016836136bc565b9150612f0382613b58565b602082019050919050565b6000612f1b6014836136bc565b9150612f2682613b81565b602082019050919050565b6000612f3e6024836136bc565b9150612f4982613baa565b604082019050919050565b6000612f616019836136bc565b9150612f6c82613bf9565b602082019050919050565b6000612f84602c836136bc565b9150612f8f82613c22565b604082019050919050565b6000612fa76038836136bc565b9150612fb282613c71565b604082019050919050565b6000612fca602a836136bc565b9150612fd582613cc0565b604082019050919050565b6000612fed6029836136bc565b9150612ff882613d0f565b604082019050919050565b60006130106020836136bc565b915061301b82613d5e565b602082019050919050565b60006130336017836136bc565b915061303e82613d87565b602082019050919050565b6000613056602c836136bc565b915061306182613db0565b604082019050919050565b60006130796020836136bc565b915061308482613dff565b602082019050919050565b600061309c6029836136bc565b91506130a782613e28565b604082019050919050565b60006130bf602f836136bc565b91506130ca82613e77565b604082019050919050565b60006130e26019836136bc565b91506130ed82613ec6565b602082019050919050565b60006131056021836136bc565b915061311082613eef565b604082019050919050565b60006131286019836136bc565b915061313382613f3e565b602082019050919050565b600061314b6000836136b1565b915061315682613f67565b600082019050919050565b600061316e6031836136bc565b915061317982613f6a565b604082019050919050565b6000613191602c836136bc565b915061319c82613fb9565b604082019050919050565b60006131b46022836136bc565b91506131bf82614008565b604082019050919050565b60006131d76019836136bc565b91506131e282614057565b602082019050919050565b6131f6816137fd565b82525050565b60006132088285612e0b565b91506132148284612e0b565b91508190509392505050565b600061322b8261313e565b9150819050919050565b600060208201905061324a6000830184612d7b565b92915050565b60006080820190506132656000830187612d7b565b6132726020830186612d7b565b61327f60408301856131ed565b81810360608301526132918184612d99565b905095945050505050565b60006020820190506132b16000830184612d8a565b92915050565b600060208201905081810360008301526132d18184612dd2565b905092915050565b600060208201905081810360008301526132f281612e3c565b9050919050565b6000602082019050818103600083015261331281612e5f565b9050919050565b6000602082019050818103600083015261333281612e82565b9050919050565b6000602082019050818103600083015261335281612ea5565b9050919050565b6000602082019050818103600083015261337281612ec8565b9050919050565b6000602082019050818103600083015261339281612eeb565b9050919050565b600060208201905081810360008301526133b281612f0e565b9050919050565b600060208201905081810360008301526133d281612f31565b9050919050565b600060208201905081810360008301526133f281612f54565b9050919050565b6000602082019050818103600083015261341281612f77565b9050919050565b6000602082019050818103600083015261343281612f9a565b9050919050565b6000602082019050818103600083015261345281612fbd565b9050919050565b6000602082019050818103600083015261347281612fe0565b9050919050565b6000602082019050818103600083015261349281613003565b9050919050565b600060208201905081810360008301526134b281613026565b9050919050565b600060208201905081810360008301526134d281613049565b9050919050565b600060208201905081810360008301526134f28161306c565b9050919050565b600060208201905081810360008301526135128161308f565b9050919050565b60006020820190508181036000830152613532816130b2565b9050919050565b60006020820190508181036000830152613552816130d5565b9050919050565b60006020820190508181036000830152613572816130f8565b9050919050565b600060208201905081810360008301526135928161311b565b9050919050565b600060208201905081810360008301526135b281613161565b9050919050565b600060208201905081810360008301526135d281613184565b9050919050565b600060208201905081810360008301526135f2816131a7565b9050919050565b60006020820190508181036000830152613612816131ca565b9050919050565b600060208201905061362e60008301846131ed565b92915050565b600061363e61364f565b905061364a828261387b565b919050565b6000604051905090565b600067ffffffffffffffff821115613674576136736139b3565b5b61367d826139e2565b9050602081019050919050565b600081519050919050565b600081519050919050565b600082825260208201905092915050565b600081905092915050565b600082825260208201905092915050565b600081905092915050565b60006136e3826137fd565b91506136ee836137fd565b9250827fffffffffffffffffffffffffffffffffffffffffffffffffffffffffffffffff0382111561372357613722613926565b5b828201905092915050565b6000613739826137fd565b9150613744836137fd565b92508261375457613753613955565b5b828204905092915050565b600061376a826137fd565b9150613775836137fd565b92508282101561378857613787613926565b5b828203905092915050565b600061379e826137dd565b9050919050565b60008115159050919050565b60007fffffffff0000000000000000000000000000000000000000000000000000000082169050919050565b600073ffffffffffffffffffffffffffffffffffffffff82169050919050565b6000819050919050565b82818337600083830152505050565b60005b83811015613834578082015181840152602081019050613819565b83811115613843576000848401525b50505050565b6000600282049050600182168061386157607f821691505b6020821081141561387557613874613984565b5b50919050565b613884826139e2565b810181811067ffffffffffffffff821117156138a3576138a26139b3565b5b80604052505050565b60006138b7826137fd565b91507fffffffffffffffffffffffffffffffffffffffffffffffffffffffffffffffff8214156138ea576138e9613926565b5b600182019050919050565b6000613900826137fd565b915061390b836137fd565b92508261391b5761391a613955565b5b828206905092915050565b7f4e487b7100000000000000000000000000000000000000000000000000000000600052601160045260246000fd5b7f4e487b7100000000000000000000000000000000000000000000000000000000600052601260045260246000fd5b7f4e487b7100000000000000000000000000000000000000000000000000000000600052602260045260246000fd5b7f4e487b7100000000000000000000000000000000000000000000000000000000600052604160045260246000fd5b6000601f19601f8301169050919050565b7f455243373231456e756d657261626c653a206f776e657220696e646578206f7560008201527f74206f6620626f756e6473000000000000000000000000000000000000000000602082015250565b7f4552433732313a207472616e7366657220746f206e6f6e20455243373231526560008201527f63656976657220696d706c656d656e7465720000000000000000000000000000602082015250565b7f4f776e61626c653a206e6577206f776e657220697320746865207a65726f206160008201527f6464726573730000000000000000000000000000000000000000000000000000602082015250565b7f457863656564206d6178696d756d2043727970746f204465767320737570706c60008201527f7900000000000000000000000000000000000000000000000000000000000000602082015250565b7f4552433732313a20746f6b656e20616c7265616479206d696e74656400000000600082015250565b7f50726573616c65206973206e6f742072756e6e696e6700000000000000000000600082015250565b7f4661696c656420746f2073656e64204574686572000000000000000000000000600082015250565b7f4552433732313a207472616e7366657220746f20746865207a65726f2061646460008201527f7265737300000000000000000000000000000000000000000000000000000000602082015250565b7f4552433732313a20617070726f766520746f2063616c6c657200000000000000600082015250565b7f4552433732313a206f70657261746f7220717565727920666f72206e6f6e657860008201527f697374656e7420746f6b656e0000000000000000000000000000000000000000602082015250565b7f4552433732313a20617070726f76652063616c6c6572206973206e6f74206f7760008201527f6e6572206e6f7220617070726f76656420666f7220616c6c0000000000000000602082015250565b7f4552433732313a2062616c616e636520717565727920666f7220746865207a6560008201527f726f206164647265737300000000000000000000000000000000000000000000602082015250565b7f4552433732313a206f776e657220717565727920666f72206e6f6e657869737460008201527f656e7420746f6b656e0000000000000000000000000000000000000000000000602082015250565b7f4552433732313a206d696e7420746f20746865207a65726f2061646472657373600082015250565b7f596f7520617265206e6f742077686974656c6973746564000000000000000000600082015250565b7f4552433732313a20617070726f76656420717565727920666f72206e6f6e657860008201527f697374656e7420746f6b656e0000000000000000000000000000000000000000602082015250565b7f4f776e61626c653a2063616c6c6572206973206e6f7420746865206f776e6572600082015250565b7f4552433732313a207472616e73666572206f6620746f6b656e2074686174206960008201527f73206e6f74206f776e0000000000000000000000000000000000000000000000602082015250565b7f4552433732314d657461646174613a2055524920717565727920666f72206e6f60008201527f6e6578697374656e7420746f6b656e0000000000000000000000000000000000602082015250565b7f436f6e74726163742063757272656e746c792070617573656400000000000000600082015250565b7f4552433732313a20617070726f76616c20746f2063757272656e74206f776e6560008201527f7200000000000000000000000000000000000000000000000000000000000000602082015250565b7f45746865722073656e74206973206e6f7420636f727265637400000000000000600082015250565b50565b7f4552433732313a207472616e736665722063616c6c6572206973206e6f74206f60008201527f776e6572206e6f7220617070726f766564000000000000000000000000000000602082015250565b7f455243373231456e756d657261626c653a20676c6f62616c20696e646578206f60008201527f7574206f6620626f756e64730000000000000000000000000000000000000000602082015250565b7f4578636565646564206d6178696d756d2043727970746f20446576207375707060008201527f6c79000000000000000000000000000000000000000000000000000000000000602082015250565b7f50726573616c6520686173206e6f7420656e6465642079657400000000000000600082015250565b61408981613793565b811461409457600080fd5b50565b6140a0816137a5565b81146140ab57600080fd5b50565b6140b7816137b1565b81146140c257600080fd5b50565b6140ce816137fd565b81146140d957600080fd5b5056fea2646970667358221220026f043e3947be50122be8013e14c34bfaeaef64103215d5d507dd5fdfd067ac64736f6c63430008040033",
  "linkReferences": {},
  "deployedLinkReferences": {}
}